:100000003FC059C0BAC257C0CFC255C054C053C078
:1000100052C0ADC550C04FC04EC04DC04CC04BC00B
:100020004AC00000000000000000000000000000C6
:1000300000000000000000000000000000000000C0
:1000400000006E5A3253624B71444E4D3762650068
:10005000FF000000000000000000000000000000A1
:100060000000000000000000000000000000000090
:100070000000000000000000000000000000000080
:1000800011241FBECFE5D2E0DEBFCDBF10E0A0E659
:10009000B0E0E4EDFDE002C005900D92A239B10799
:1000A000D9F720E0A2E9B0E001C01D92A43DB2075B
:1000B000E1F7EBD240C6A4CF4EE003C04CE001C054
:1000C0004AE02F923F924F925F926F927F928F926F
:1000D0009F92AF92BF92CF92DF92EF92FF920F93D7
:1000E0001F93CF93DF938F939F93DB01FC01842FAA
:1000F000E89481909190A190B190C190D190E190BD
:10010000F190019111912191319141915191619120
:1001100071919BE1F4E00D9080240D9090240D905E
:10012000A0240D90B0240D90C0240D90D0240D90EB
:10013000E0240D90F0240D9000250D9010250D90D9
:1001400020250D9030250D9040250D9050250D90C7
:1001500060250D9070252EF5FF91EF91819291927F
:10016000A192B192C192D192E192F1920193119335
:10017000219331934193519361937193DF91CF9187
:100180001F910F91FF90EF90DF90CF90BF90AF90B5
:100190009F908F907F906F905F904F903F902F90A7
:1001A00008958A9509F46894E82D8490EC2DC49004
:1001B000E02F0491E42F4491E92D2490ED2D9490AB
:1001C000E12FD490E52F1491522DEA2D2490EE2D9D
:1001D0003490E22FA490E62FE490222D632DEB2D96
:1001E0002490E72FB490E32F7491EF2D3491F22CEB
:1001F0000EF491CF0A2C0B24402C282C892408249F
:10020000880C08F4892680248224392C3A24330C63
:1002100008F4392630249324440C08F44926402459
:10022000A4242B24220C08F429262024B2240E2CEA
:100230000F24402C2C2CCD240C24CC0C08F4C926E3
:10024000C024C2243D2C3E24330C08F4392630242B
:10025000D324440C08F449264024E4242F24220CFF
:1002600008F429262024F224022E0326402C202ED6
:1002700001270026000F08F4092700250225312E4A
:100280003226330C08F4392630241325440C08F4A4
:100290004926402424252326220C08F4292620243C
:1002A0003225062E0726402C242E45270426440FEF
:1002B00008F4492740254225352E3626330C08F40C
:1002C000392630245325440C08F44926402464255B
:1002D0002726220C08F42926202472251CCFAB01E6
:1002E00071E060E007C0AB0170E060EC03C0AB01FF
:1002F000772760E8EF92FF920F931F93CF93DF93DE
:10030000FA01EA01DC017695679566956695262FD8
:100310000D9001922A95E1F76695669563FB362F5D
:10032000762F795F770F770FDF011497262FE0E0A4
:10033000F4E07F0111E04D915D918D919D91321717
:10034000B1F05EF5022F0770043039F5F701E40FC4
:10035000F11D4491F701E50FF11D5491F701E80FEC
:10036000F11D8491F701E90FF11D949116C0360F2C
:10037000F701E40FF11D0491F701E50FF11D449120
:10038000F701E80FF11D5491F701E90FF11D849178
:10039000902F4127110F08F41BE1FD01099004265D
:1003A0000192099005260192099008260192099070
:1003B000092601922395271709F0BDCFE894DF9114
:1003C000CF911F910F91FF90EF90089500000000D2
:1003D000000000000000000000000000000000001D
:1003E000000000000000000000000000000000000D
:1003F00000000000000000000000000000000000FD
:10040000637C777BF26B6FC53001672BFED7AB76D1
:10041000CA82C97DFA5947F0ADD4A2AF9CA472C07C
:10042000B7FD9326363FF7CC34A5E5F171D83115E9
:1004300004C723C31896059A071280E2EB27B2750A
:1004400009832C1A1B6E5AA0523BD6B329E32F8482
:1004500053D100ED20FCB15B6ACBBE394A4C58CF7A
:10046000D0EFAAFB434D338545F9027F503C9FA84E
:1004700051A3408F929D38F5BCB6DA2110FFF3D21C
:10048000CD0C13EC5F974417C4A77E3D645D1973D0
:1004900060814FDC222A908846EEB814DE5E0BDBCA
:1004A000E0323A0A4906245CC2D3AC629195E47901
:1004B000E7C8376D8DD54EA96C56F4EA657AAE085B
:1004C000BA78252E1CA6B4C6E8DD741F4BBD8B8AF6
:1004D000703EB5664803F60E613557B986C11D9E5C
:1004E000E1F8981169D98E949B1E87E9CE5528DFD3
:1004F0008CA1890DBFE6426841992D0FB054BB16FF
:100500000F931F93CF93DF93CDB7DEB7C05BD109B5
:100510000FB6F894DEBF0FBECDBF8B01BE016F5F7B
:100520007F4FE5DEBE016F5F7F4FC801C9DDC0555B
:10053000DF4F0FB6F894DEBF0FBECDBFDF91CF9176
:100540001F910F9108959627092E0294202D2F7048
:100550002927692F6025660F607E2627602D692771
:10056000607F6695092E000C661F96959695969568
:100570009F7196279827822F08951F920F920FB68A
:100580000F9211248F938BB780618BBF0FB6F894B5
:10059000A89581B5886181BD11BC0FBE8F910F9068
:1005A0000FBE0F901F9018951F920F920FB60F92CB
:1005B00011248F930FB6F894A89581B5886181BDF9
:1005C00011BC0FBE8F910F900FBE0F901F9018950A
:1005D00014BE88E981BD80E681BDA895089540E2FA
:1005E00050E060E470E080E690E09CD38091700081
:1005F00080939F00B7D29FD12FE788E391E02150ED
:1006000080409040E1F700C00000CBD1D79ABA9A61
:10061000D398D098D198D298D89AD99ADA9AB8988B
:10062000B998C09AC19AC39A88E082BB8AB78061A0
:100630008ABF8BB780618BBF089586E086B981E25F
:1006400087B9379A089585B7877E806185BF16B8C8
:10065000F8948BB780618BBF939ABADF85B78062BD
:1006600085BF7894889585B78F7D85BF78940895E8
:10067000E6EBF0E080919F0080838CED90E0938327
:1006800082831182158214820895CF93DF9300D064
:10069000CDB7DEB7A4DF80919F008093B600E0E67F
:1006A000F0E0A7EBB0E081918D9320E0E037F20716
:1006B000D1F706EB10E080E090E0F80161918F0146
:1006C00042DFF0E0073C1F07C1F789839A83D0DF40
:1006D000409171002091720030E0322F2227240FC8
:1006E000311D4091700089819A814F3F89F4409378
:1006F000B60081E08093BB0033E0E32EF12C812C27
:1007000040E3942E41E1A42EB12C10E101E01FC082
:100710008217930789F38FEF8093B60082E0EACFC8
:100720000FD186FDB0C0E7EEF3E03197F1F700C0DE
:100730000000F1E0CF1AD10899F7C2982FEF84E3B7
:100740009CE0215080409040E1F700C00000809183
:10075000B6008F3F29F56AE080E0F9D08FE697E197
:100760000197F1F700C0000052D168E080E0EFD0BF
:10077000EFE6F7E13197F1F700C000006BE080E0B1
:10078000E6D08FE697E10197F1F700C00000DF980F
:1007900082EEA5D1DF9AC29A25E6C22ED12CC0CF17
:1007A00068E080E0D4D04FDF48DF1092B9001092AB
:1007B000B8008FE99FE00197F1F700C00000CB9BE4
:1007C00003C00093BA0002C01092BA0080E090E02B
:1007D000369A3699FECF009761F024B135B1409139
:1007E000B8005091B900240F351F3093B900209301
:1007F000B80001968430910559F78091B800909126
:10080000B900B70131D29B0140E050E0C501B4010D
:100810003FD23093B9002093B80086EBC82E80E019
:10082000D82E80E090E0F60161916F018CDEFBEB49
:10083000CF16F0E0DF06B9F79093BD008093BC00BF
:10084000E6EBF0E0A0E7B0E0812F01900D928A95F1
:10085000E1F760E770E080E690E052DEE0E7F0E08C
:10086000A6EBB0E0812F01900D928A95E1F76AE046
:1008700080E06DD08FE697E10197F1F700C00000AE
:10088000C6D0F6DE64CFC29800D18091A0009FEF61
:10089000980F9E3F08F05BCF80939F00A3D080917C
:1008A0009F008093B60080E090E00196FC01EA543E
:1008B000FF4FDC01A056BF4F2C9120838031910562
:1008C000A1F796EBC92E90E0D92E612C712CF60180
:1008D00061916F01C30137DE3C01F7ECCF16F0E008
:1008E000DF06A9F78091B1009091B20068167906F1
:1008F00029F0E0919200F09193000995B9DEE1EAC8
:10090000F0E0A0E6B0E0812F01900D928A95E1F72A
:100910008091B600809370006092710070927200B6
:1009200060E670E080E490E008D2E0919200F091FF
:10093000930009950CCFBA9AD79AC298DF9A089576
:10094000DF9887E0CCD08FEFCAD0DF9A0895CF939D
:10095000DF931F92CDB7DEB7DF988F718062698316
:10096000BED06981862FBBD0DF9A0F90DF91CF91E7
:1009700008950F931F93CF93DF931F92CDB7DEB7E8
:100980008B01DF988F7180624983A9D04981642FE0
:10099000C801AFD0DF9A0F90DF91CF911F910F91D7
:1009A000089565E085E0D3DF64E181E1D0DF64E1B3
:1009B00082E1CDDF63E184E0CADF45E060E870E01A
:1009C0008AE0D7DF45E066E870E08BE0D2DF45E003
:1009D00060E870E080E1CDDF63E082E0B8DF6AE0EC
:1009E00080E0B5CF68E080E0B2DF45E060E870E02D
:1009F0008AE0BFDF45E06CE870E08BE0BADF45E0FD
:100A000060E870E080E1B5DF6AE080E0A0CF1F938E
:100A1000CF93DF936AE080E09ADFDF9881EE5FD0CA
:100A2000DF9ADF9880EA5BD064E186EB90E061D0EA
:100A3000DF9AC29A88E28A95F1F7C298CAE0D0E0BC
:100A40007FDF182F107285FD17C087EE93E00197A6
:100A5000F1F700C0000074DF84FF08C060E187E0A8
:100A600076DFC29A98E29A95F1F7C298219741F7FA
:100A700060E187E06CDF04C060E287E068DF11E0DE
:100A8000812FDF91CF911F910895CF936BE080E08C
:100A90005EDFC29AE0EAF0E0119280E0E43BF80702
:100AA000D9F7C4E64DDF86FD0AC087EE93E00197D3
:100AB000F1F700C00000C150A9F7C2980DC0C2985C
:100AC000DF9881E60CD064E180EA90E02ED0DF9AD6
:100AD00060E487E03CDFC1E08C2FCF9108958FB9AF
:100AE00080E48EB98BE1769902C08DB9FCCF8FB1CD
:100AF0000895EF92FF921F93CF93DF931F92CDB78C
:100B0000DEB7182F7C018E2D811B861738F4F70174
:100B100081917F016983E3DF6981F5CF0F90DF91D8
:100B2000CF911F91FF90EF900895EF92FF921F9346
:100B3000CF93DF931F92CDB7DEB7182F7C018E2D98
:100B4000811B861740F480E06983C9DFF701819338
:100B50007F016981F4CF0F90DF91CF911F91FF90BA
:100B6000EF900895D49AD59AD698DE9A08951F9258
:100B70000F920FB60F9211242F933F934F935F93D1
:100B80006F937F938F939F93AF938091940088236B
:100B900019F18091D200811102C0C09818C08091D3
:100BA000D200893068F48091D30080FF02C0C09ADF
:100BB00001C0C0988091D30086958093D30007C070
:100BC0008091D200893018F0C09A109294008091E0
:100BD000D2008F5F8093D200809195009091960013
:100BE00089599F4F9093960080939500809195002E
:100BF00090919600893E934048F120919700309162
:100C000098004091990050919A0060919B007091DA
:100C10009C0080919D0090919E00A1E055D0209372
:100C20009700309398004093990050939A006093F6
:100C30009B0070939C0080939D0090939E008091F8
:100C4000950090919600885E9340CCCFAF919F9194
:100C50008F917F916F915F914F913F912F910F9065
:100C60000FBE0F901F901895AA1BBB1B51E107C028
:100C7000AA1FBB1FA617B70710F0A61BB70B881F2C
:100C8000991F5A95A9F780959095BC01CD010895BB
:100C9000052E97FB16F400940FD057FD05D020D0F9
:100CA00007FC02D046F408C0509540953095219538
:100CB0003F4F4F4F5F4F0895909580957095619588
:100CC0007F4F8F4F9F4F08950024A7FD00942A0F58
:100CD000301D401D501D601D701D801D901D08950C
:100CE000A1E21A2EAA1BBB1BFD010DC0AA1FBB1F30
:100CF000EE1FFF1FA217B307E407F50720F0A21BA2
:100D0000B30BE40BF50B661F771F881F991F1A940E
:100D100069F760957095809590959B01AC01BD0138
:100D2000CF010895FB01DC0102C005900D924150F6
:0A0D30005040D8F70895F894FFCF63
:100D3A000F931F93CF938B017FB7F894E199FECF5E
:100D4A0023E0FC0120935700E89507B600FCFDCF8D
:100D5A0020E030E0C1E0D801A20FB31F6C91F90185
:100D6A00E80FF91F11964C9150E0542F4427460F73
:100D7A00511D0A01C0935700E89511242E5F3F4F79
:100D8A002032310541F741E0AFEFBFEFF901E80F3B
:100D9A00F91F0D0140935700E89511242E5F3F4F2C
:100DAA002034310599F7E199FECF07B600FCFDCF53
:100DBA0025E0FC0120935700E89581E187BFE8957B
:0A0DCA007FBFCF911F910F91089594
:100DD400303132333435363738394142434445466D
:100DE400010000E20000000000000000000000001C
:100DF4006D69726632006D69726633006D69726680
:020E04003100BB
:00000001FF
